:100000000C308A004D2C0000FF00030E8301A1007C
:100010000A08A0008A010408A2007708A300780853
:10002000A4007908A5007A08A600831383128C30F7
:100030008400801E1D288C1A34288C308400001CFB
:1000400023280C183728220884002308F7002408E6
:10005000F8002508F9002608FA0020088A00210E79
:100060008300FF0E7F0E09008A150A1200288A11EC
:100070000A122B2B0A108A100A11820728340C341A
:10008000013406340C102E1D2026E531F43AF230EE
:10009000A03CA020EC36E1316537E136E9326E3A1A
:1000A0006F10E43220366110D4326D386539613A10
:1000B000753961103A17A0060A050000A01829102A
:1000C000CC3265392036EF392022613AEF39A02051
:1000D000EC36E13165376132EF3920050D0020192A
:1000E0002910C634EA3072106536202AE9326D389C
:1000F0006F10C432A026F532733AF2326F100D053C
:100100000A006108E8006508E806E81F8C2803116A
:100110000310E11B0314BF286108E8006408E9002C
:100120006008E90203199A28E81FBF280308013A6A
:100130008300BF286508E9006108E9020319A628C1
:10014000E81FBF280308013A8300BF286608E900BA
:100150006208E9020319B228E81FBF280308013A20
:100160008300BF286708E9006308E9020319BE2875
:10017000E81FBF280308013A8300BF2803100800C6
:100180008316081088100811831288100F30831608
:100190000805F038880083120815000008140000D4
:1001A0000808F700080E0F39F8007808EE0008106C
:1001B0000000081400000808F700080E0F39F800C6
:1001C0007808ED0008100F308316080588008312A8
:1001D0006E0EF700F030F70577086D04F800780828
:1001E000ED00ED1BC6286B1C88106B1888140000EE
:1001F0000811000008106C0EED000F30ED056D08C1
:10020000F400740EF039F7000F3008057704880009
:10021000000008140B2908106C080F39ED006D0858
:10022000F400740EF039F7000F30080577048800E9
:10023000000008141B2908100800680B2029232936
:100240004030E9002429E90101306702E907690823
:100250008038EA00EB016A08EC00C0200800673033
:10026000840083130008031943290130F800F701C3
:10027000F70B3829F80B37294A30F700F70B3E29DE
:100280004129800B352908006608073A03195229CD
:100290000B3A03195729063A03195F29023A031941
:1002A00065296A290130E700E8001D216F29EB016B
:1002B0000130EC00C0200230E7002F216F2901300F
:1002C000E7000230E8001D216F29EB011030EC003F
:1002D000C0206F290130EB006608EC00C020080048
:1002E0000B08E1008B13831603178C170C14000006
:1002F00000000318A22983120C087F390313E200BF
:1003000003170D080313E30003170F080313E4009A
:100310006208E6004421630803178D000313640894
:1003200003178F0083168C170C1400000000831233
:100330000313E00B9C299F2983160317A229C129C7
:100340008316031783120C0D0E0D7F390313E20081
:1003500003170D080313E30003170F080313E4004A
:100360006208E6004421630803178D000313640844
:1003700003178F008D0A03198F0A03100313E00B74
:100380007329E11B8B1708006708F8016602031840
:10039000CC296608F700D829F7010830E800E60DF7
:1003A000F70D670877020318F700F80DE80BCF295F
:1003B000080073080319582A8316A0007B08031D40
:1003C000E3298312582AA0070318F1297F30A002DD
:1003D0000318EC298312582A031DF0298312582A86
:1003E000F7298130A007031CF7298312582A200817
:1003F000F700F801F901FA017408A400A4177508C0
:10040000A3007608A2001830A000A101221C202A17
:100410007E08FA07031C122AF90A031D122AF80A99
:100420000319A1177D08F907031C192AF80A0319F3
:10043000A1177C08F500F5177508F8070318A11730
:10044000A10DF80CF90CFA0CA40CA30CA20C0310CF
:10045000A00B052A0130F707031C302A8312582A03
:10046000F81B3A2AA40DFA0DF90DF80DF70B3A2AEC
:100470008312582AA41F4D2AFA0A031D4D2AF90A8D
:10048000031D4D2AF80A031D4D2AF80CF90CFA0C2D
:10049000F70A031D4D2A8312582A7408A1007C080C
:1004A000A106A11F552AF8175D2AF8135D2A8312A9
:1004B000F701F801F901FA018316831208000030F0
:1004C000F8001F08C73978049F001F151F19662AF6
:1004D00083161E088312B6001E08B7003708E10015
:1004E0003608E0008E30F7006108F8006008F90077
:1004F000FA01F808031D862A7908F800F901083086
:10050000F702F808031D862AF7018E2A0310F81B4C
:100510008D2AF90DF80DF703862AF8137A08F600EC
:100520007908F5007808F4007708F300FE01FD0172
:100530007A30FC007D30FB00D9217A08BD007908B3
:10054000BC007808BB007708BA0008000830F80043
:1005500000008711A8112808831687000000831265
:10056000E50D0712031CBA2A2816280883168700EF
:10057000BE2A8312281228088316870000008312DF
:10058000A8152808831687008312871DC52AF80B33
:10059000A82A00008711A8112808831687000000E8
:1005A0008312281628088316870000000000831293
:1005B000A8152808831687008312871DDD2AF801F5
:1005C0000000071A78148711A811280883168700DD
:1005D0008312071228122808831687008312080046
:1005E000281628088316870000008312A8152808FB
:1005F000831687000000831207122812280883162A
:100600008700000083128711A8112808831687002D
:10061000A0308312E500A6227808641078186414CC
:10062000281228088316870000008312A8152808BE
:10063000831687008312871D1B2B00001F2B0000D1
:100640002816280883168700000000308312641CD7
:100650000130F80008008E010C308F0080308E00D1
:10066000B30A3308023C031D152DB3014108E30012
:100670004008E2003F08E1003E08E000E701E60133
:10068000E501E40181200319B92BB40A0130E70028
:100690000230E8001D21193003178D0005308F004E
:1006A000031005300313E00070213408E000183017
:1006B000E1002030611E3030E2006008F700E01FEA
:1006C000692BF709F70A7708E0002D30E200E117FF
:1006D00061146008E6006430E700C4217708E00098
:1006E00030307807E3006008E6000A30E700C421F4
:1006F00030307707E50030307807E4006208F70013
:10070000303063020319882BE114E11B61159C2B27
:100710006208E3002030E200303064020319942BB9
:100720006114E11BE1149C2B031D6114031D9C2B20
:100730006308E4002030E3006119A32BE118A62B25
:100740006118A92BAC2B6208E60044216308E6007F
:1007500044216408E60044216508E60044211C3079
:1007600003178D0005308F0003140B300313E000D6
:100770007021E1013408E0008E30F7006108F800D4
:100780006008F900FA01F808031DD02B7908F80079
:10079000F9010830F702F808031DD02BF701D82B18
:1007A0000310F81BD72BF90DF80DF703D02BF81316
:1007B0007A08E3007908E2007808E1007708E000B1
:1007C0004108E7004008E6003F08E5003E08E40075
:1007D0008120031DD42C4108E3004008E2003F08BB
:1007E000E1003E08E000E701E601E501E4018120C7
:1007F0000319D42C0130E700E8001D212330031732
:100800008D0005308F0003130B08E0008B13831657
:1008100003178C170C140000000083120C087F399A
:1008200003194B2C0313E10003170D080313E20017
:1008300003170F080313E3006108E6004421620870
:1008400003178D000313630803178F0083168C179B
:100850000C140000000083120C0D0E0D7F390319DB
:100860004B2C0313E10003170D080313E2000317D9
:100870000F080313E3006108E60044216208031730
:100880008D000313630803178F008D0A03198F0A65
:100890000313072C03170313E01B8B170430E0002E
:1008A000FA30E7002F21E00B502C5F223D08E300D7
:1008B0003C08E2003B08E1003A08E0008E30F70017
:1008C0006008F7026108F9006208F800F917F708F4
:1008D0000319752C0310F908031D712CF80803196E
:1008E000752CF90CF80CF70B6A2CE11F7C2CF8091D
:1008F000F909F80A0319F90A7808E000E201320858
:10090000E1006008E300F022F8080319832C2816A0
:1009100028088316870000008312A815280883166C
:100920008700000083120712281228088316870008
:10093000000083128711A811280883168700A030B1
:100940008312E500A622E5016130E400013064076E
:10095000F8006508FA000318FA0A7808840083137F
:100960007A1883170008E400E500A6226108E50074
:10097000A6226308E500A62228122808831687000D
:1009800000008312A8152808831687008312871D8C
:10099000C72C0000CB2C00002816280883168700DF
:1009A00000008312B20AB50AE1013408E0008E307B
:1009B000F7006108F8006008F900FA01F808031D63
:1009C000EB2C7908F800F9010830F702F808031D4C
:1009D000EB2CF701F32C0310F81BF22CF90DF80D9A
:1009E000F703EB2CF8137A08E3007908E2007808A3
:1009F000E1007708E0004108E7004008E6003F0812
:100A0000E5003E08E4008120031D152D4108E300A8
:100A10004008E2003F08E1003E08E000E701E6018F
:100A2000E501E4018120031DB4010C108A110A12B2
:100A30002328D3326717A01269102010201020102D
:100A40002010201000008C23F53072326137E4371B
:100A50002022613A6F172E1700000B08E1008B135C
:100A6000831603178C170C14000000000318602D68
:100A700083120C087F390313E20003170D080313D8
:100A8000E30003170F080313E40062080C1E462D51
:100A90009900630803178D000313640803178F0080
:100AA00083168C170C140000000083120313E00B54
:100AB0005A2D5D2D83160317602D802D8316031785
:100AC00083120C0D0E0D7F390313E20003170D087E
:100AD0000313E30003170F080313E40062080C1E5E
:100AE0006F2D9900630803178D0003136408031723
:100AF0008F008D0A03198F0A03100313E00B302DAA
:100B0000E11B8B1708008318882DA0308400831305
:100B1000F701F801F901FA018316A001A101A20170
:100B2000A30174087304720471040319C92D2030E1
:100B3000A40003108312ED0DEE0DEF0DF00D8316E2
:100B4000A00DA10DA20DA30D74082302031DB22D4B
:100B500073082202031DB22D72082102031DB22D5B
:100B600071082002031CC32D7108A0027208031C27
:100B7000720FA1027308031C730FA2027408031CF6
:100B8000740FA3020314F70DF80DF90DFA0DA40B61
:100B9000992D20088000840A21088000840A2208F8
:100BA0008000840A23088000831208000408E500FE
:100BB0006408E7000319F52D6308F6006208F500E4
:100BC0006108F4006008F300FE01FD012030FC0024
:100BD0008230FB00D9217A08E3007908E200780826
:100BE000E1007708E000E70BDC2D6308F6006208FF
:100BF000F5006108F4006008F3007308B63CF300E8
:100C0000FA017408FB00F4170310F40CF50CF60C51
:100C1000FA0CF90CF80CF70CF30B042EFB1F1B2E2F
:100C2000F709F809F909FA09F70A0319F80A031983
:100C3000F90A0319FA0A7A08E3007908E200780849
:100C4000E1007708E000E31F322EE503E516E00936
:100C5000E109E209E309E00A0319E10A0319E20ADA
:100C60000319E30A3B30EC009A30EB00CA30EA008B
:100C7000E9010A30E70064080319E50A83146030CB
:100C8000840083136308F0006208EF006108EE003F
:100C90006008ED006C08F4006B08F3006A08F200CD
:100CA0006908F10083257808F708031D6A2E640A95
:100CB000670203196A2E650803196C2E0F39670243
:100CC0000319642E0318A02EE51BA02E651B6C2EA5
:100CD00020309B2E2030E505E51E7B2EE5126408B2
:100CE000031DE5037708E5002D300C1E752E9900D5
:100CF0006508F700E50164086702031D8A2E77087E
:100D0000E5002E300C1E822E99006508F700203079
:100D1000E50500303030E51E9B2EE5126408031D0A
:100D2000E5037708E5002D300C1E942E9900650828
:100D3000F700E5013030F70777080C1E9D2E99006B
:100D400083106C08F0006B08EF006A08EE00690879
:100D5000ED00F401F301F2010A30F10083257A0875
:100D6000EC007908EB007808EA007708E900E70B67
:100D70003E2E08000B08E0008B13831603178C1718
:100D80000C140000000083120C087F390319032F94
:100D90000313E10003170D080313E20003170F0804
:100DA0000313E30061080C1ED32E99006208031799
:100DB0008D000313630803178F0083168C170C1420
:100DC0000000000083120C0D0E0D7F390319032F54
:100DD0000313E10003170D080313E20003170F08C4
:100DE0000313E30061080C1EF32E99006208031739
:100DF0008D000313630803178F008D0A03198F0AF0
:100E00000313BD2E03170313E01B8B17080042309A
:100E100003178D0000308F000313BA265E300317CE
:100E20008D0000308F000313BA266F3003178D003A
:100E300000308F000313BA2608000D05C430F437C4
:100E400020276F17A01269103D1025330D000D05E6
:100E50000A103A1D2010CE3A653B6F10D434E536A7
:100E6000F03720326510CD3AE5397439E537201076
:100E70003A1D00010D05201D3A10202B61366F39F7
:100E800020326510301061103618A029E53375370F
:100E9000E4377310201D3A000D05A024EE33F23222
:100EA000F332A0326C10CE3A653B6F10D630EC377F
:100EB00072103A1000000D050A104536202AE9325A
:100EC0006D386F10C432A026F532733AF2326F10CB
:100ED000E5392032651025192E186610D332E73A0D
:100EE0006E32EF39A0060A00D4326D386539613AA6
:100EF0007539E11EA5192E18E6210002202AE536D3
:100F0000F032F230F43AF230BD1233173033C30608
:100F100000000F308316080588000810881008119B
:100F20008312881008110810A7018B1BA7178B13B9
:100F30000F30E7002F21A71B8B170130C600460892
:100F4000033C031CBB2F0330F400740EF039F70090
:100F50000F3008057704880000000814AF2F081030
:100F6000A7018B1BA7178B130530E7002F21A71BA9
:100F70008B17C60A9F2F0230F400740EF039F70069
:100F80000F3008057704880000000814C72F0810E8
:100F9000A7018B1BA7178B130530E7002F21A71B79
:100FA0008B17C6014608033C031CE52F46083A2070
:100FB000C700A7018B1BA7178B13EB014708EC0099
:100FC000C020A71B8B17C60AD22F8A150A12892C9C
:101000008C1E00281A08B901B8003808313C031DAD
:101010009829B908031D9829B10135083102031830
:101020008729E1013108E0008A11F0228A15F808C9
:101030000319142828162808831687000000831235
:10104000A8152808831687000000831207122812AB
:10105000280883168700000083128711A81128082A
:1010600083168700A0308312E5008A11A6228A1514
:10107000E4016030E30001306307F8006408FA001F
:101080000318FA0A7808840083137A188317000873
:10109000E300E5008A11A6228A156008E5008A119E
:1010A000A6228A15281628088316870000008312B6
:1010B000A81528088316870000008312871D5E2864
:1010C0000712281228088316870000008312871150
:1010D000A811280883168700A1308312E5008A1121
:1010E000A6228A15F7010830E4007708E5002816E3
:1010F00028088316870000008312A8152808831685
:1011000087008312871D8228071A0314071E031005
:10111000F80D0000A8112808831687008312871194
:10112000E40B77282816280883168700000083120E
:10113000071265080319A1282812280883168700BA
:1011400083120000A8152808831687008312871DC4
:10115000A72800008711A81128088316870000001F
:101160008312071228122808831687007808831232
:10117000E200281228088316870000008312A815B1
:101180002808831687008312871DC4280000C828FA
:1011900000002816280883168700000083126208C2
:1011A000F800E1017808E0008E30F7006108F800EF
:1011B0006008F900FA01F808031DE8287908F8002A
:1011C000F9010830F702F808031DE828F701F028B4
:1011D0000310F81BEF28F90DF80DF703E828F813B2
:1011E0007A08C5007908C4007808C3007708C200EF
:1011F0001D3003178D0007308F0003100B300313D1
:10120000E0008A112D258A153108E0001830E10030
:101210002030611E3030E2006008F700E01F18291E
:10122000F709F70A7708E0002D30E200E1176114B2
:101230006008E6006430E7008A11C4218A15770847
:10124000E00030307807E3006008E6000A30E7008D
:101250008A11C4218A1530307707E50030307807CD
:10126000E4006208F7003030630203193B29E114FF
:10127000E11B61154F296208E3002030E2003030A5
:101280006402031947296114E11BE1144F29031D6E
:101290006114031D4F296308E4002030E300611945
:1012A0005629E1185A2961185E29622962080C1E24
:1012B0005729990063080C1E5B29990064080C1ECD
:1012C0005F29990065080C1E6329990020300C1EC7
:1012D000672999003D300C1E6B29990020300C1EA7
:1012E0006F299900893084004508E3004408E20032
:1012F0004308E1004208E0000230E4008A11D625EC
:101300008A150D300C1E82299900B10A0D280C3067
:10131000E000FA30E7008A112F218A15E00B8929B5
:101320000C300C1E912999008A1107278A152F2B42
:101330003808323C031D2F2BB908031D2F2B2730F3
:1013400003178D0007308F008A110313BA268A1500
:101350003A3003178D0007308F008A110313BA2625
:101360008A154C3003178D0007308F008A11031344
:10137000BA268A152F30840083138403840A8C1EB6
:10138000BF291A0880000D300002031DBE2980010C
:10139000E1012F30E000E501E3010A30E400E20161
:1013A00060086104031DD7290030F800C82A6508C9
:1013B000E50A600784008313611883170008E600BC
:1013C00066082D3C031DF0290130E3006508E50A9D
:1013D000600784008313611883170008E600FD2965
:1013E00066082B3C031DFD296508E50A600784009B
:1013F0008313611883170008E60066082F3C031862
:10140000BE2A6608393C031CBE2A6608303C031D10
:10141000292A650860078400831361188317000870
:10142000783C03191D2A650860078400831361183E
:1014300083170008583C031D292A1030E400E50AF0
:101440006508E50A600784008313611883170008A4
:10145000E60064080A3C031D6C2A66082F3C03184A
:101460006B2A6608393C031C6B2A0A30E7006208C5
:10147000E800F701F801670803106818F707F70C90
:10148000F80CE818F707F70CF80C6819F707F70CD1
:10149000F80CE819F707F70CF80C681AF707F70CBF
:1014A000F80CE81AF707F70CF80C681BF707F70CAD
:1014B000F80CE81BF707F70CF80C303066027807D9
:1014C000E2006508E50A600784008313611883174A
:1014D0000008E6002D2ABE2A6408103C031DBE2A1F
:1014E0006608603C03187B2A66087A3C031C7B2A4A
:1014F0006608DF397C2A6608E60066082F3C031878
:10150000852A6608393C03188D2A6608403C031872
:10151000BE2A6608463C031CBE2A66082F3C0318F8
:101520009E2A6608393C031C9E2A620EE700F030B2
:10153000E705303066026707E200A72A620EE7007F
:10154000F030E705413066020A3E6707E2006508B1
:10155000E50A600784008313611883170008E6001A
:101560006608603C0318BB2A66087A3C031CBB2A49
:101570006608DF39BC2A6608E6007D2A630BC62AA6
:1015800064080A3C031DC62AE209E20A6208F80060
:10159000E1017808E000E01BE1038E30F70061080C
:1015A000F8006008F900FA01E11FDB2AF809F909DF
:1015B000F90A0319F80AF808031DE82A7908F8005F
:1015C000F9010830F702F808031DE82AF701F12AAB
:1015D0000310F81BEF2AF90DF80DF703E82AE11FB5
:1015E000F8137A08C1007908C0007808BF007708AE
:1015F000BE005B3003178D0007308F0003102030D2
:101600000313E0008A112D258A150130840041085A
:10161000E3004008E2003F08E1003E08E000E4018A
:101620008A11D6258A156D3003178D0007308F007B
:1016300003140C300313E0008A112D258A1508309D
:10164000E000FA30E7008A112F218A15E00B212BE8
:101650000C300C1E292B99008A1107278A158C1231
:101660008A110A1223280408CB004A08CD00031966
:101670005A2BA7018B1BA7178B134908F6004808A4
:10168000F5004708F4004608F300FE01FD01203094
:10169000FC008230FB008A11D9218A15A71B8B1709
:1016A0007A08C9007908C8007808C7007708C6001A
:1016B000CD0B392B4908F6004808F5004708F4001F
:1016C0004608F3007308B63CF300FA017408FB0007
:1016D000F4170310F40CF50CF60CFA0CF90CF80CDA
:1016E000F70CF30B692BFB1F802BF709F809F9099D
:1016F000FA09F70A0319F80A0319F90A0319FA0A89
:101700007A08C9007908C8007808C7007708C600B9
:10171000C91F972BCB03CB16C609C709C809C9092E
:10172000C60A0319C70A0319C80A0319C90A3B30B4
:10173000D2009A30D100CA30D000CF010A30CD009B
:101740004A080319CB0A8314463084008313A70187
:101750008B1BA7178B134908F0004808EF004708B8
:10176000EE004608ED005208F4005108F30050085E
:10177000F2004F08F1008A1183258A15A71B8B17E9
:101780007808F708031DD72B4A0A4D020319D72BF7
:101790004B080319D92B0F394D020319D12B03180C
:1017A000292CCB1B292C4B1BD92B20301D2C203056
:1017B000CB05CB1EEF2BCB124A08031DCB037708BA
:1017C000CB00A7018B1BA7178B132D30E6008A11C6
:1017D00044218A15A71B8B174B08F700CB014A0839
:1017E0004D02031D052C7708CB00A7018B1BA71703
:1017F0008B132E30E6008A1144218A15A71B8B1704
:101800004B08F7002030CB0500303030CB1E1D2CAC
:10181000CB124A08031DCB037708CB00A7018B1B13
:10182000A7178B132D30E6008A1144218A15A71BB8
:101830008B174B08F700CB013030F707A7018B1B44
:10184000A7178B137708E6008A1144218A15A71B76
:101850008B178310A7018B1BA7178B135208F0005F
:101860005108EF005008EE004F08ED00F401F301BD
:10187000F2010A30F1008A1183258A15A71B8B1704
:101880007A08D2007908D1007808D0007708CF0014
:10189000CD0BA32B8A150A12C62C03081F3983000F
:1018A000193083169900A630980090308312980062
:1018B000FF30A800B101B201B301B50183161F14B6
:1018C0009F141F159F1107309C0083138312A901D9
:1018D000AA010830831688001F1383121F179F1751
:1018E00083169F1783121F1483161F109F101F1536
:1018F0009F11B530831290008E010C308F00803024
:101900008E0083160C148C16C03083128B048A113F
:10191000892F8A15A7018B1BA7178B138A110727FD
:101920008A15A71B8B17A7018B1BA7178B138A116F
:101930005F228A15A71B8B17A7018B1BA7178B1379
:101940000130E700E8008A111D218A15A71B8B17BB
:10195000743003178D0007308F0003100313A701A5
:101960008B1BA7178B130C30E0008A1170218A158E
:10197000A71B8B17023084003D08C9003C08C80033
:101980003B08C7003A08C600CA01332BA7018B1BCE
:10199000A7178B134330E6008A1144218A15A71B31
:1019A0008B177E3003178D0007308F000310031351
:1019B000A7018B1BA7178B130D30E0008A112D2573
:1019C0008A15A71B8B1702308400A7018B1BA71752
:1019D0008B133D08E3003C08E2003B08E1003A08B5
:1019E000E000E4018A11D6258A15A71B8B17433026
:1019F0000C1EF82C99000D300C1EFC2C9900932C19
:021A0000630081
:02400E00713F00
:00000001FF
;PIC16F877A
;CRC=235C  CREATED="24-dic.-23 12:06"
